:0400000043EF00F0DA
:100008004B82FACF0FF0FBCF10F0D9CF11F0DACF37
:1000180012F0F3CF13F0F4CF14F0F2AC22D00E01AB
:10002800C0B9C8A909D001D81CD005000001FA6ED2
:10003800EA51FD6EEB510BD0C0BBC8AB0DD001D857
:1000480010D005000001FA6EE851FD6EE951FE6E10
:10005800F850FF6EFA501200BEB3C6A302D00FECE0
:1000680015F014C0F4FF13C0F3FF12C0DAFF11C07B
:10007800D9FF10C0FBFF0FC0FAFF4B921100BCEF75
:100088000DF08FEC13F00009D8B412000A0EBDEC85
:1000980014F0000902E0398001D039900B0EBDEC54
:1000A80014F0000902E0398201D039920C0EBDEC3F
:1000B80014F0000902E0398401D039940D0EBDEC2A
:1000C80014F0000902E0398601D039960E0EBDEC15
:1000D80014F0000902E0398801D039980001D5519F
:1000E800391803E0010EC86FF4D939C0D5F00E01F4
:1000F800C9A304D0C993010E0001C76F0001C751FD
:1001080001E16FD1000E9AEC14F00001D46FD451C4
:1001180035E0000E4BEC14F0E6D9D02BD25105E1B6
:10012800010ED06502D0D26FB1D9D15107E1310E9D
:10013800D06504D0010ED16F140ECF6FD15106E0F7
:10014800CF2B130ECF6502D0CF6BA0D9190E41600B
:1001580005D04150790F8DD9412A7BD0010E01017C
:10016800B06FB051790FD96EDA6AB051780FABD948
:10017800B065F7D7B051780F7CD96BD0D35168E010
:10018800D45166E1190E416040D04150780FD96EC4
:10019800DA6ADF50795D8FD95BE066D92DEC15F00E
:1001A80016BE56D0165003E13C0E155C51E33FD9FC
:1001B8001AD9CBEC08F02DD980EC02F021D95FECEC
:1001C8000EF04DD9B2BF07D0B25102E1B10503E339
:1001D800415031D902D0415081D965D9B2AF04D04C
:1001E8005DD902E29C0E08D0B2BF08D0B25103E13B
:1001F800650EB15D03E3640E3A6E02D0B1C13AF008
:100208003B6A3D6A3C6A74D923D09151795D1DD906
:100218002DEC15F016BE1CD0165003E13C0E155CF3
:1002280017E300D9E0D8CBEC08F0F3D880EC02F063
:10023800E7D85FEC0EF013D9B2AF02D02FD9D2E3D2
:10024800B2BFDCD7B251D7E1650EB15DD4E2D6D7E3
:10025800416AD4C0D3F0010E9AEC14F00001CE6FBD
:10026800CE5135E0010E4BEC14F03DD9CA2BCC51E0
:1002780005E1010ECA6502D0CC6F00D9CB5107E168
:10028800310ECA6504D0010ECB6F140EC96FCB5165
:1002980006E0C92B130EC96502D0C96BEFD8190E39
:1002A800406005D04050600FE4D8402A7BD0010E52
:1002B8000101B06FB051600FD96EDA6AB0515F0FAB
:1002C80002D9B065F7D7B0515F0FD3D86BD0CD51F5
:1002D80068E0CE5166E1190E406040D040505F0F93
:1002E800D96EDA6ADF50605DE6D85BE0BDD82DECE8
:1002F80015F016BE56D0165003E13C0E155C51E3BE
:1003080096D871D8CBEC08F084D880EC02F078D875
:100318005FEC0EF0A4D8B2BF07D0B25102E1B1052C
:1003280003E3405088D802D04050D8D8BCD8B2AFE8
:1003380004D0B4D802E29C0E08D0B2BF08D0B251A3
:1003480003E1650EB15D03E3640E3C6E02D0B1C1FA
:100358003CF03D6A3B6A3A6ACBD823D07851605D5D
:1003680074D82DEC15F016BE1CD0165003E13C0EC7
:10037800155C17E357D837D8CBEC08F04AD880EC8F
:1003880002F03ED85FEC0EF06AD8B2AF02D086D841
:10039800D2E3B2BFDCD7B251D7E1650EB15DD4E28A
:1003A800D6D7406ACEC0CDF045EC06F00101B06B5F
:1003B80013D026EC16F000090FE00101B051390FF7
:1003C800D96EDA6ADF50DAEC13F00101B02B040EB3
:1003D800B06502D00001C86B0001C851EAE1396A72
:1003E80078D8C76B1200296E3F0E2A6EB1C115F07E
:1003F800B2C116F0000E16BEFF0E176E186E010C75
:1004080023C02FF024C030F025C031F026C032F0D0
:10041800120015C023F016C024F017C025F018C02C
:1004280026F012009A0E276E990E286E190C000EEF
:10043800276E286E000C19080001FC6FD890FC3755
:10044800D890FC37FC51010112000101B16FB26B69
:10045800D8A0B207B1C115F0B2C116F012002FC072
:10046800B1F130C0B2F11200B1C115F0B2C116F04D
:100478001200D96EDA6AAFC1DFFF1200AFC13DF0DA
:100488003C6A3B6A3A6A010EC86F010CAFC13BF087
:100498003A6A3D6A3C6A010EC86F010C9C0EB15D58
:1004A800FF0EB2591200AE6FAE51B127000EAEBFAB
:1004B800FF0EB22312000101B16FB26BD8A0B207D0
:1004C800B151B2111200E16EE26ADFCFE7FFB02B43
:1004D800180C3A6A3B6A3C6A3D6A12001908040D16
:1004E800F3500008120015500101AF6F000112000F
:1004F800010E0001C86F010C2650800B01019A6F94
:10050800265026249C6F25BE9C819C5105E09C2981
:1005180001E1FDD8258E01D0FAD82A50800B9A1B0C
:100528002A502A249B6F29BE9B819B5105E09B2959
:1005380001E1F2D8298E01D0EFD89B5102E09C51FD
:1005480005E1236A246A256A266A120029502302D3
:10055800B1D89D6F9E6B9F6BA06BA651A16FA26BCC
:10056800A36BA46B28502402A5D8B2D82750250223
:10057800A1D8AED8A5D8275024029CD8B5D82850E1
:10058800230298D8B1D89CD82750230293D8ACD846
:10059800295024028FD8B4D8285025028BD8B0D837
:1005A8002950250287D82B6EA6512C6E2D6A2E6AEB
:1005B8002DC02EF02CC02DF02BC02CF02B6A2B5008
:1005C800A1272C50A2232D50A3232E50A423A051A1
:1005D800A12791D875D89B519CC12BF02C6A2B264A
:1005E800000E2C22820E2B24A56FFF0E2C20A66F46
:1005F8000FD0D890A137A237A337A437A0BFA181C5
:10060800D8909D379E379F37A037A507D8A0A60753
:10061800A3AFEFD79B6BA0AF13D09D512B6E9E510C
:100628002C6E9F512D6E7F0EA0152E6E2B502C1008
:100638002D102E1003E0010E9B6F02D0A1B1FBD745
:100648009B510BE0A12B57D8A4A107D0A435A43304
:10065800A333A233A133A54BA62BA6BF0AD0A6511C
:1006680002E1A52906E3A16BA26B800EA36F7F0EA2
:1006780015D0A6BF04D0A65108E1A50506E2A16BD6
:10068800A26BA36BA46B9A6B0AD0A5C19CF17F0ED9
:10069800A317A46B9CB1A38FD8909C31A46F9A51D7
:1006A800A413A1C123F0A2C124F0A3C125F0A4C1C1
:1006B80026F01200F3CFA5F1F4CFA6F1A551120050
:1006C8009FC1A0F19EC19FF19DC19EF19D6B12003B
:1006D8009D27000E9E239F23A023A651A127000E2D
:1006E800A223A323A423000C9D27A6519E23000E1A
:1006F8009F23A023000C000EA223A323A423000CF5
:10070800A127A651A223000EA323A423000C236A29
:10071800246A256A266A1200276A286A296A2A6AC8
:10072800120020EE02F0E1D89A6F20EE03F0DDD837
:10073800A16F100EA16104D00C0EA06F9D6B04D0A8
:10074800080EA06F040E9D6F0001DB050CE1A0C12F
:100758002BF00101A1512C6E2D6A2B2A01D0DAD879
:100768002B2EFDD70FD0A0C12BF001019A5146C006
:100778002CF02D6A2C5E000E2D5A2B2A01D0CAD8D7
:100788002B2EFDD7C2D83EC01CF03FC01DF0BCC008
:100798001EF0BDC01FF0BEC020F0BFC021F0A0C138
:1007A80022F063EC0DF01C500101A2271D50A32379
:1007B800020EA1651DD020EE01F02950D9262A503D
:1007C800DA22DE0409E197D8A1C117F0186A9DC1A1
:1007D80019F018EC11F00BD08ED8FF0EA125176E6A
:1007E800186AFF0E18229DC119F018EC11F088D86C
:1007F8000101A205100EA35903E3100EA36FA26B0B
:1008080020EE01F072D83DE120EE04F06ED82B6E98
:100818000F0E2B1636E09E6B9F6B20EE04F065D80A
:100828000F0B9B6F9C6B07D09B07D8A09C07280ECB
:100838009E27000E9F239B519C11F6E19E51A25DBD
:100848009F51A35903E2A26BA36B06D09E51A25DF0
:10085800A26F9F51A359A36F4ED89EC12BF09FC181
:100868002CF0D8902B362C362B500008176E2C50B5
:10087800D8A0E82A1008186E0C0E196E18EC11F0A2
:100888003FD849500C082B6EA2C12CF0A3C12DF003
:100898002B2A03D0D8902D322C322B2EFBD735D8CB
:1008A80015D82E6EFF0E2D202F6E0101A2512E5C41
:1008B800A3512F5806E20AD80101A26FFF0E2D207E
:1008C800A36FA2C129F0A3C12AF0120049C02BF0DE
:1008D800010E2C6E2D6A2B2A03D0D8902C362D367B
:1008E8002B2EFBD7FF0E2C2412002950D9262A5074
:1008F800DA22DF501200A2C115F0A3C116F01200CF
:1009080015C0A2F116C0A3F112002CC0A2F12DC08F
:10091800A3F11200D8902C362D361200076A000E6B
:10092800F2BE010E086ED2D89B6FAA0E9B6F9B91E8
:1009380008B002D0F29E01D0F28E07D074D883D8C6
:10094800AAD803E1B8D8076E0AD04850B6EC15F01B
:100958000009F4E14850C0EC15F00009EFE063D855
:1009680072D8B1D89B6FAA0E9B6F9B8108B002D03A
:10097800F29E01D0F28E0750D8A412007BD8096EDF
:10098800020EF4200A6E09C001F00AC002F064D811
:10099800DFB601D002D0010E01D0000E000907E039
:1009A80020EE03F04AD87DD848D8596F16D009C030
:1009B80001F00AC002F028EC0CF0DFB801D002D038
:1009C800010E01D0000E000906E020EE02F035D835
:1009D8006DD833D801D073D8576F45D82ED85A6FF1
:1009E80020EE04F02AD8056ED8900530616E20EE0E
:1009F80005F023D84AD8016E4850D2EC09F03FD808
:100A08001CD8056E066A090ED89005360636E82EFB
:100A1800FBD705C06BFF06C06CFF08B002D0F29E82
:100A280001D0F28E56D04850090D010EF324D96E2C
:100A3800020EF420DA6EDF5012000950D9260A504F
:100A4800DA22DF501200056E066AE20E0524D96E1E
:100A58000E0E0620DA6E120020EE08F00150D9269C
:100A68000250DA2212000001DC510F01592720EE52
:100A780001F012004850090D000EF3241200F29EF6
:100A88000F015B8120EE04F01200586F5B8F010E9E
:100A98000001DF6F010C120EDF6E482A0F0E481896
:100AA80012000F01576F20EE02F012000F01596F6C
:100AB80020EE03F01200486A0001DF6B010CC00E43
:100AC8000F01596FC00CDF6A0E01550CF29E0E0122
:100AD800550C0001DE6B12000101AB6FA86BA46B13
:100AE800A56B020EAB61020CAB51110D780EF3240D
:100AF800AC6F010EF420AD6F20EE01F0BDD8010EF1
:100B0800DF6406D020EE04F0B7D8D00EDF60D00C3A
:100B180020EE04F0B1D8DF500001F76FF7390F0B62
:100B2800496E49C0F7F0010EF86FF96BF72B03D047
:100B3800D890F837F937F72FFBD7F8C0C0F0F9C0CD
:100B4800C1F0ACC121F0ADC122F08AEC0FF0010177
:100B580020EE0EF091D821C0DEFF22C0DDFF20EE8E
:100B680006F08AD810EE0EF0AC51E126AD51E22223
:100B7800DE50E65CDE50E65838E320EE10F07CD814
:100B8800DF50030B020A03E1010EA56F2ED020EE01
:100B980002F072D8DF50A96FAA6BA951BDEC14F00E
:100BA800000907E0010E0101A56FAB513AEC16F000
:100BB8001CD00101A92B000EAA2320EE02F05CD85C
:100BC800DF500001F76FF86B010120EE03F054D8F5
:100BD800DF500001F727000EF823F7510101A95D46
:100BE8000001F8510101AA59D8E3A5511BE120EEF3
:100BF8000EF042D8DE6ADD6A20EE10F03DD8DF50F4
:100C0800030B020A09E120EE10F036D8010EDF6E60
:100C1800AB513AEC16F027D020EE10F02DD8010E8B
:100C2800DF6E21D0ACC131F0ADC132F013EC10F061
:100C380031C0A6F132C0A7F1010120EE0CF01CD89A
:100C4800A651DE1803E1A751DE180BE0A88520EEB7
:100C58000CF012D8A6C1DEFFA7C1DDFFAB513AECFC
:100C680016F0A883A88F20EE10F006D8A8C1DFFFE1
:100C7800A851820BA4131200AC51D926AD51DA2227
:100C880012000001C85161E0395006E0340EF66FD9
:100C98008D50F00B391002D08D50F00B836E3B5005
:100CA80011E0AAD83B6002D09FD80BD0800E3B60E1
:100CB80002D096D806D0C00E3B6002D099D801D099
:100CC8009ED8836E3D5011E097D83D6002D08CD8F5
:100CD8000BD0800E3D6002D083D806D0C00E3D6098
:100CE80002D086D801D08BD8836E3A5016E03A509D
:100CF800800A7F0F03E3010EC66F01D0C66B3A501E
:100D0800156E166A15BE16062DEC15F01550000165
:100D1800C46FC4C017F05FD8F66F3C5016E03C5063
:100D2800800A7F0F03E3010EC56F01D0C56B3C50ED
:100D3800156E166A15BE16062DEC15F01550000135
:100D4800C36FC3C017F047D8F56FC751D8B41200A6
:100D5800200EF66119D0C22BF651C25D0FE3C26BAB
:100D6800F62B2FD8C65104E131D808E1010E05D081
:100D7800D8904A324A5002E1080E4A6E1F0EF665B4
:100D880003D08D50F00B836E200EF561200CC22B22
:100D9800F551C25D0FE3C26BF52B13D8C55104E1C1
:100DA80015D808E1010E05D0D8904A324A5002E120
:100DB800080E4A6E1F0EF5651F0C8D50F00B836EE2
:100DC80012008D50F00B4A10836E1200D8904A36EC
:100DD800100E4A181200D890173217503408120013
:100DE8008D50F00B020912008D50F00B0109120012
:100DF8008D50F00B04091200340EF66F400C8D5024
:100E0800F00B080912001B6A000EF2BE010E1C6EE0
:100E18006AEC05F09B6FAA0E9B6F9B911CB002D0E9
:100E2800F29E01D0F28E0AD017EC05F08ED84FEC66
:100E380005F004E15FEC05F01B6E0AD048508EEC1B
:100E480015F00009F1E14850A2EC15F00009ECE0BA
:100E580017EC05F07AD867EC05F09B6FAA0E9B6F2C
:100E68009B811CB002D0F29E01D0F28E1B50D8A4F8
:100E780012003EEC05F01D6E020EF4201E6E1DC021
:100E880015F01EC016F020EE08F01550D9261650A1
:100E9800DA22DFB601D002D0010E01D0000E00091F
:100EA80008E020EE03F04BD855EC05F048D8596F10
:100EB8001CD01DC015F01EC016F020EE08F015500D
:100EC800D9261650DA22DFB801D002D0010E01D09F
:100ED800000E000907E020EE02F031D85AEC05F0C8
:100EE8002ED802D063EC05F0576F37EC05F027D801
:100EF8005A6F20EE04F023D8196ED8901930616E1D
:100F080020EE05F01CD849EC05F0156E485051EC60
:100F180009F043EC05F013D8196E1A6A090ED89037
:100F280019361A36E82EFBD719C06BFF1AC06CFFAA
:100F38001CB002D0F29E01D0F28E6DEF05F01D506C
:100F4800D9261E50DA22DF501200196E1A6AE20EF4
:100F58001924D96E0E0E1A20DA6E120020EE0FF048
:100F680077D8DF5000082A6E20EE0AF071D8DE50DC
:100F7800800A2C6E2A50800A2C5C14E220EE0BF0BA
:100F880067D86BD820EE0BF063D8010EDB5003E175
:100F9800210EDE5C33E320EE0BF05AD862D8B0ECB9
:100FA80012F02CD020EE0AF053D8DF502A6E20EE33
:100FB8000FF04ED8DF50D880D8842AAE2A5CD8A04B
:100FC800D88417E020EE03F043D8DF5006E051D86C
:100FD8004AEC0BF0000901E0120020EE02F038D8CC
:100FE800020EDF6E20EE0BF033D83BD83CEC16F047
:100FF80005D020EE0BF02CD8DE6ADD6A20EE03F077
:1010080027D8DF500CE035D84AEC0BF0000907E090
:1010180020EE0DF01DD8DE68FB0EDD6EFB0C20EE19
:101028000DF016D8DE2A000EDD2220EE0DF010D8C5
:10103800100EDE18DE10D8A4120020EE0DF008D82D
:10104800DE6ADD6A28C015F029C016F0FBEF0EF045
:101058002850D9262950DA221200DE2A000EDD2275
:10106800000CDE6ADD6A28C0D9FF29C0DAFFDF502C
:10107800120028C01DF029C01EF01200226A236A3F
:10108800256A4750020DF3CF17F0F4CF18F025501A
:10109800060D000EF324196E010EF4201A6E175077
:1010A8001924D96E18501A20DA6EDECF1BF0DDCF66
:1010B8001CF0255042EC0BF0DECF1DF0DDCF1EF00A
:1010C8001B501D5C156E1C501E58166E2DEC15F02D
:1010D80015C020F016C021F02050225C2150235862
:1010E80004E220C022F021C023F0252A0E0E256438
:1010F800C8D7235003E1650E225C32E343D8DF2AC8
:10110800050EDF64050C39D8DF50246E040E246404
:1011180003D0FC0E242602D03C0E246E010E1F6E56
:10112800266A4750261808E02650F20FD96EDA6A68
:101138002450DE1801E11F6A262A020E2664F1D720
:101148001F50E4E01AD824C0DFFF266A2650B90FE2
:10115800D96EDA6ADF6A262A020E2664F7D7020CED
:1011680023500AE1320E225CD8B012000BD8DF50AF
:10117800D8B4120007D8DF0612004750F20FD96E14
:10118800DA6A12004750B90FD96EDA6A12001D6E7A
:101198001D501CE018AE1AD015C019F016C01AF070
:1011A80017C01BF018C01CF0191E1A1E1B1E1C1E8F
:1011B800192A000E1A221B221C2219C01FF01AC05D
:1011C80020F01BC021F01CC022F008D015C01FF071
:1011D80016C020F017C021F018C022F015501610C4
:1011E8001710181005E1156A166A176A186A1200AE
:1011F800960E1E6E02D01E2A44D8196A1A6A1B6AF5
:10120800FE0E221444D808E0F6D71E2A1F2A000E24
:1012180020222122222235D8196A1A6A1B6A2250F2
:1012280036D807E0F2D71E06D8901F36203621366A
:10123800223621BE03D0020E1E60F5D71EA0219EC5
:10124800D8901E321EC019F01A6A1B6A1C6A19C08F
:101258001CF01B6A1A6A196A19501F121A502012B8
:101268001B5021121C5022121D5002E018BE228E63
:101278001FC015F020C016F021C017F022C018F0CA
:101288001200D8902232213220321F3212001C6EF6
:1012980019501A101B101C101200186E5AD015B0D5
:1012A80002D0879201D08782120015B002D08794AD
:1012B80001D08784120015B002D0879601D08786A6
:1012C800120015B002D0879801D08788120015B097
:1012D80002D0879A01D0878A120015B002D089946B
:1012E80001D08984120015B002D0899201D0898278
:1012F800120015B002D0899001D08980120015B073
:1013080002D0879C01D0878C120015B002D0879E2E
:1013180001D0878E120015B002D0899E01D0898E27
:10132800120015B002D0899C01D0898C120015B02A
:1013380002D0899A01D0898A120015B002D0899802
:1013480001D08988120015B002D0899601D089860B
:1013580012001850166E176A1750D8A412001650AB
:101368009EE0010AA2E0030AA6E0010AAAE0070A31
:10137800AEE0010AB2E0030AB6E0010ABAE00F0AD9
:10138800BEE0010AC2E0030AC6E0010ACAE0070A91
:10139800CEE0010AD2E0030AD6E01200046E5AD069
:1013A80001B002D0879201D08782120001B002D02A
:1013B800879401D08784120001B002D0879601D0AB
:1013C8008786120001B002D0879801D08788120062
:1013D80001B002D0879A01D0878A120001B002D0EA
:1013E800899401D08984120001B002D0899201D079
:1013F8008982120001B002D0899001D08980120040
:1014080001B002D0879C01D0878C120001B002D0B5
:10141800879E01D0878E120001B002D0899E01D02C
:10142800898E120001B002D0899C01D0898C1200EB
:1014380001B002D0899A01D0898A120001B002D085
:10144800899801D08988120001B002D0899601D00C
:10145800898612000450026E036A0350D8A4120051
:1014680002509EE0010AA2E0030AA6E0010AAAE0EF
:10147800070AAEE0010AB2E0030AB6E0010ABAE0E0
:101488000F0ABEE0010AC2E0030AC6E0010ACAE088
:10149800070ACEE0010AD2E0030AD6E012001B6E6A
:1014A8001B5042EC0BF01B50920FE16EE26AE750C2
:1014B800E72A020DF3CF17F0F4CF18F046D8196ECB
:1014C800010EF4201A6E17501924E16E18501A20D4
:1014D800E26EDECFE6FFDDCFE5FF59D8020EDF640E
:1014E80002D055D8DF6A4CD81AD810E327D8F42090
:1014F80038D830D802E344D83CD020D810D802E3FA
:101508001DD837D022D8D96E010E33D017D807D8B6
:10151800F9E214D8F42025D81DD8F2E2ECD7F4204B
:10152800DA6E1B50060D000EF324E16E010EF42056
:10153800E26EDE50E65CDE50E65812001B50060DE7
:10154800040EF324D96E010E12001B50060D000E76
:10155800F3241200F420E26EDE50E65CDE50E6581A
:101568001200DA6E1B50060D020EF324E16E010E16
:101578001200F420DA6EDECF15F0DDCF16F012007F
:101588001B50060D020EF324D96E010E12001B50DB
:10159800920FD96EDA6A12000E01C693016A48509A
:1015A800D2EC09F00001DE5105E001D003D00F01B3
:1015B8005B9F53D00F015B9F3EEC05F00D6E020E52
:1015C800F4200E6E0DC001F00EC002F030EC05F0F4
:1015D800DFB601D002D0010E01D0000E000909E1EA
:1015E80001D007D00DC003F00EC004F0BDEC0BF025
:1015F8000BD00DC001F00EC002F020EE08F0015033
:10160800D9260250DA22DF82485038D8DECF0BF0D4
:10161800DDCF0CF06D500B5C016E6E500C58026EF5
:1016280049EC15F0025005E1650E015C07E301D0B5
:1016380005D04850090D1BD8DF8404D04850090D47
:1016480016D8DF940001DD5108E101D006D04850DA
:1016580015D86DCFDEFF6ECFDDFF0001DD0504E19B
:1016680001D002D0DF6B120092EC04F01200080ED9
:10167800F324D96E020EF420DA6E1200020D5A0E0F
:10168800F324D96E010EF420DA6E120020EE03F076
:101698006AD8236E1DC015F01EC016F089EC12F032
:1016A80020EE0FF060D8155C216E1650D8A01604F5
:1016B800226E000E266E030E276E2750030801E1E6
:1016C80049D04BE31DC0D9FF1EC0DAFF26C0E1FF99
:1016D80027C0E2FFDE50E61836E020EE03F03ED8E1
:1016E8002350DE1830E126C0D9FF27C0DAFFDF50CB
:1016F800A2EC15F0000927E020EE02F02FD8020E28
:10170800DE1801E1010C26C015F027C016F089EC9F
:1017180012F020EE0FF022D8DF50155C246E165020
:10172800D8A01604256E25BE0ED0255002E124044B
:101738000AE32450215C2250800A1F6E2550800A3B
:101748001F5801E2010C110E2626000E27222750F1
:10175800030802E12650EE08B5E2000C2650D9260F
:101768002750DA2212001D50D9261E50DA22DF50E7
:10177800120003C0D9FF04C0DAFFDF50096E03C0AE
:1017880001F004C002F060D8DFB801D002D0010E29
:1017980001D0000E00091EE120EE04F050D8DF5001
:1017A800056E066A090ED89005360636E82EFBD770
:1017B8006D50055C6E50065807E220EE05F03FD8E4
:1017C800DF2A1E0EDF641E0C03C001F004C002F005
:1017D80073EF14F020EE04F032D8DF50056E066A7D
:1017E800D89005360636095042EC0BF0DECF07F0EC
:1017F800DDCF08F06D50075C016E6E500858026E20
:1018080049EC15F00550015C065002580BE220EE39
:1018180002F015D8C00EDF6E03C001F004C002F05C
:1018280057EF15F020EE03F00AD8B70EDF6401D0A9
:10183800EED720EE03F003D8080EDF26080C03507D
:10184800D9260450DA22120020EE08F00150D926D9
:101858000250DA2212002E6A20EE05F059D8DF5025
:101868002D6E20EE0CF054D8DECF29F0DDCF2AF013
:1018780022C015F023C016F029C017F02AC018F0AE
:1018880024C019F025C01AF056EC10F015C02FF03E
:1018980016C030F030AE0AD02F5000082F6E3050EE
:1018A800D8A0E82A0008306E010E2E6E2E0413E12F
:1018B80020EE09F02DD831D80EE220EE08F028D815
:1018C8002DC0DFFF20EE09F023D8DF6A24C02BF0FB
:1018D80025C02CF018D02E500FE120EE08F018D8B3
:1018E8001CD80AE220EE08F013D8DF6A20EE09F0CF
:1018F8000FD82DC0DFFFEAD720EE0CF009D8DECFD5
:101908002BF0DDCF2CF02BC022F02CC023F01200DE
:101918002250D9262350DA221200DF50266E276A79
:101928002F50265C2750800A286E3050800A28588D
:10193800120020EE06F05DD8DECF17F0DECF18F0EB
:10194800DECF19F0DECF1AF0030E05D0D8901A3288
:10195800193218321732E82EF9D720EE04F049D898
:10196800DECF1BF0DDCF1CF01B501D6E1C501E6E11
:101978001F6A206A17501D5C216E18501E58226E6F
:1019880019501F58236E1A502058246E20EE10F05C
:1019980030D8DF50176E1728186E05D0243424323B
:1019A800233222322132182EF9D724BE0CD02450EB
:1019B8002310221003E1800E215C05E37F0E216EC7
:1019C800226A236A246A24AE0ED0800E215CFF0EA0
:1019D8002258FF0E2358FF0E245805E2800E216E70
:1019E80022682368246820EE0AF003D821C0DFFFAC
:1019F80012001550D9261650DA22120020EE0AF0ED
:101A08002250D9262350DA22DECF2AF0DDCF2BF060
:101A180022C015F023C016F02AC017F02BC018F00A
:101A280024C019F025C01AF056EC10F015C02EF09D
:101A380016C02FF02E042F1004E02E2807E12F28BF
:101A480005E12AC028F02BC029F023D02FAE0CD0F6
:101A58002E5000082E6E2F502DD820D82C5000085C
:101A68002E6E2D5027D805D019D82CC02EF02DC099
:101A78002FF02A502E24286E2B502F20296EFF0E6F
:101A8800C025266EFF0EC121276E26502816275026
:101A9800291628C022F029C023F012002EC02CF0ED
:101AA8002FC02DF0D8902D30266E2C302C6E26C0ED
:101AB8002DF01200D8A0E82A00082F6E120020503E
:101AC8001C5C21501D5826E320C023F021C024F0BF
:101AD8003DD81C502524276E1D502620286E22C074
:101AE80023F0010E246E256A232A03D0D8902436C9
:101AF8002536232EFBD720501E5C156E21501F580B
:101B08002FD818EC11F02450155C276E2550165864
:101B1800286E17D01CC023F01DC024F017D8205001
:101B28002524276E21502620286E1C50205C156E17
:101B38001D50215815D818EC11F015C027F016C003
:101B480028F027C01CF028C01DF01200D8902336BA
:101B5800243623501E5C256E24501F58266E120012
:101B6800166E27C017F028C018F022C019F012000E
:101B7800580EF66E290EF76E000EF86E01EE78F02C
:101B880010EE22F00900F5CFEEFFE550E150FAE142
:101B9800FC0EF66E2B0EF76E000EF86E00EEECF0F3
:101BA80010EE0BF00900F5CFEEFFE550E150FAE139
:101BB8007E0EF66E2C0EF76E000EF86E0900F5CF4D
:101BC8004AF003EE00F010EEFFF0EE6AE550E15047
:101BD800FCE1E250FAE102EE00F0870EEE6AE80658
:101BE800FDE101EE00F0780EEE6AE806FDE100EE98
:101BF80060F0800EEE6AE806FDE100EE39F0110EA5
:101C0800EE6AE806FDE14B904B92000EF86E00017B
:101C1800CAEF15F0306E3050110D000EF324316EFE
:101C2800030EF420326E20EE01F03FD88EEC15F052
:101C38000009D8B4120020EE01F037D898EC15F05E
:101C48000009D8B4120031C01CF032C01DF0EFEC0E
:101C580014F031C015F032C016F09DEC0CF020EEF7
:101C680002F03150D9263250DA22020EDF6407D052
:101C780031C0D9FF32C0DAFFDF50B0EC12F031C00A
:101C880028F032C029F020EE02F00FD8020DF350F0
:101C9800EC0FD96EDA6A0500FA6EDE50FD6EDE5082
:101CA800FE6EF850FF6EFA5012003150D9263250AD
:101CB800DA22DF50120031343234386E385005E100
:101CC8002F6A306A316A326A12002FC033F030C08E
:101CD80034F031C035F032C036F0200E05D0D8903F
:101CE8003632353234323332E82EF9D73350376E44
:101CF800318E326A960E385E38AE0CD03850800A73
:101D0800970FDEE3D8903232313230322F32383EFC
:101D1800F9D70CD01F0E386407D0D2D7D8902F36F9
:101D280030363136323638063850F8E1375008E068
:101D3800321E311E301E2F6C000E3022312232220C
:101D48002FC02FF030C030F031C031F032C032F047
:101D5800120041D8010EDB500AE1030EDE5C07E2F7
:101D680028C018F029C019F036EC12F006D028C0A7
:101D780015F029C016F0FBEC0EF02DD831EC08F068
:101D88002AD8010EDB5004E1040EDE5CD8A0120054
:101D980020EE06F027D8DECF2AF0DECF2BF0DECFFC
:101DA8002CF0DECF2DF0030E05D0D8902D322C323A
:101DB8002B322A32E82EF9D720EE04F013D82AC0A5
:101DC800DEFF2BC0DDFF20EE02F00CD8010EDF6E27
:101DD80002D8FEEF11F020EE0BF02850D92629503A
:101DE800DA2212002850D9262950DA221200F2AE3F
:101DF80005D0F29E3ED805D8F28E000C3AD801D80C
:101E0800000CDA22DECF17F0DECF18F0DECF19F0A3
:101E1800DECF1AF0030E05D0D8901A3219321832D4
:101E28001732E82EF9D720EE06F01550D9261650AD
:101E3800DA221750DE5E1850DE5A1950DE5A1A5050
:101E4800DE5A20EE04F01550D9261650DA22DECFDD
:101E580017F0DDCF18F020EE06F01550D9261650F1
:101E6800DA221750DE261850DE22000EDE22DE228D
:101E7800000C20EE06F01550D9261650120020EE60
:101E880002F03FD8DF50196EDB6B1950461829E174
:101E980020EE01F036D8DE0421E120EE03F031D83F
:101EA800DF501924186E18041FEC15F03E6E3F6AB7
:101EB8003EBE3F0619281FEC15F00001BE6FBF6B30
:101EC800BEBFBF073E50BE5DBF51800A186E3F506F
:101ED800800A18580DE2010EDB6F0AD03E6A3F6A8D
:101EE80007D046041FEC15F03E6E3F6A3EBE3F0623
:101EF8003FAE02D03E6A3F6A3EC016F03FC017F0C0
:101F080012001650D9261750DA22120021C016F0F6
:101F180022C017F0D8EC10F016C0BCF017C0BDF006
:101F280021C016F022C017F097EC10F016C0BEF0D2
:101F380017C0BFF021C016F022C017F043EC0FF015
:101F480016C03EF017C03FF00001BE513E5C3F5046
:101F5800800A236EBF51800A235805E2BE51BC2572
:101F6800256EBF5104D03E50BC25256E3F50BD2183
:101F7800266E20EE06F02150D9262250DA22DE50B5
:101F8800255CDE50265802E2256A266A25C021F023
:101F980026C022F0120020EE0BF031D8E80EDE5CED
:101FA800030EDE5804E330D8B0EC12F02DD020EE4A
:101FB8000FF025D8DF502A6ED8902A3220EE0FF085
:101FC8001ED8DF502B6E2A502B5C2C6E20EE0AF0A8
:101FD80016D8DE50800A2E6E2C50800A2E5CD8B09F
:101FE800120020EE02F00BD8010EDF6E20EE0BF08F
:101FF80006D810D804D8DE68FB0EDD6E05D0285050
:10200800D9262950DA22120028C0D9FF29C0DAFFC0
:10201800DF501200DE6ADD6A20EE0DF0120031C0DA
:1020280029F032C02AF095EC03F029C037F02AC015
:1020380038F020EE10F031D8DF50030B020A05E02B
:1020480037C035F038C036F00ED031C022F032C07B
:1020580023F037C024F038C025F002EC0DF022C080
:1020680035F023C036F020EE0AF017D837C0DEFF6F
:1020780038C0DDFF31C022F032C023F035C024F073
:1020880036C025F02FEC0CF022C033F023C034F01A
:1020980033C031F034C032F012003150D9263250FA
:1020A800DA221200D8900001C1311B6EC0311E6EB9
:1020B8001BC01FF01750195C206E18501A58216E5B
:1020C80020EE01F01550D9261650DA22DE0426E15A
:1020D80021AE15D01B6A1C6A1E501B5E1F501C5A6D
:1020E8001B50205C2150800A1D6E1C50800A1D5810
:1020F80015E22050C025206E2150C1210ED020505D
:102108001E5C1F50800A1B6E2150800A1B5806E275
:10211800C051205C206EC1512158216E20C015F09D
:1021280021C016F0120020EE02F039D8DF501E6EE2
:102138004650186E196A20EE03F031D8DF501EC0E1
:102148001AF01B6A1A26000E1B22FF0E1A241C6E98
:10215800FF0E1B201D6E18501C1810E119501D1879
:102168000DE120EE01F01BD8DE0404E11E501FEC47
:1021780015F007D00001BE6BBF6B08D046281FECD6
:1021880015F00001BE6FBF6BBEBFBF07BFAF02D067
:10219800BE6BBF6BBEC016F0BFC017F01200165062
:1021A800D9261750DA2212001E6A1F6A35D8466EE1
:1021B80033D8206E17D020501FEC15F01C6E1D6A06
:1021C8001CBE1D061C501E5C1F50800A186E1D5038
:1021D800800A185806E220C046F01CC01EF01DC038
:1021E8001FF0202A19D8186E196A20EE03F016502D
:1021F800D9261750DA22DF501826000E192220504F
:102208001A6E1B6A18501A5C19501B58D4E31EC06A
:1022180016F01FC017F0120020EE02F01650D92653
:102228001750DA22DF5012001A6A1B6A192A17504F
:10223800181007E12DD01906D8901534156E1634EC
:10224800166E16BE09D0195007E0F5D7192AD8908E
:102258001734176E1834186E18AEF8D714D0D890F3
:102268001A341A6E1B341B6E19061750155C185059
:10227800165806E31750155E1850165A1A4A1B2AA4
:10228800D89018321732195005E01BAEE8D702D0A3
:102298001A681B68195002E01A681B681AC015F002
:1022A8001BC016F0120020EE02F034D821E02BD823
:1022B800DECF1AF0DDCF1BF0D8901B321A32D8903F
:1022C8001B321A3220D81A50DE5E1B50DD5A20EE1F
:1022D80001F020D85FEC14F0D89016321532D8905F
:1022E8001632153210D81550DE261650DD2212008F
:1022F80020EE01F00FD85FEC14F005D815C0DEFF12
:1023080016C0DDFF120020EE04F01850D92619502F
:10231800DA2212001850D9261950DA22DF5012009A
:1023280032D8DF6A9CA40ED02ED8DF8201D80AD01A
:102338000500FA6EE651FD6EE751FE6EF850FF6E2D
:10234800FA5012009CA20FD01ED80001DF8401D8D9
:102358000AD00500FA6EE451FD6EE551FE6EF850A4
:10236800FF6EFA5012000FD8DF5002E13BEF15F074
:1023780005000001FA6EE251FD6EE351FE6EF85061
:10238800FF6EFA5012004250A10FD96EDA6A12009D
:10239800156E020E1560020C1550110D780EF324FF
:1023A800166E010EF420176E20EE10F01ED8DF6AAC
:1023B80020EE08F01AD8DF6A20EE05F016D810EEE5
:1023C80009F01650E1261750E222DFCFE7FF20EE92
:1023D8000AF00BD8DE6ADD6A20EE0CF006D8DE6A59
:1023E800DD6A20EE0EF001D805D01650D926175018
:1023F800DA221200DE6ADD6A1200C09B280E156E12
:10240800230E166E09EC16F0C0990E0E156E290EE5
:10241800166E04EC16F0080E9E6E900E9C6E240E3E
:102428009D6E8A0E9A6E9B6A7A0E156E2C0E166E2B
:1024380013EC16F0600E156E2C0E166E0EEC16F0E0
:102448006E0E156E2C0E166E18EC16F00001D66B7B
:10245800456A446A080E436E426AD86BD76B0E0110
:10246800C08B120020EE01F01850D9261950DA223C
:10247800DF505FEC14F015501A6E16501B6E1C6A74
:102488001D6A14D81AC0DEFF1BC0DEFF1CC0DEFFA9
:102498001DC0DEFF0BD8020ED890DE36DE36DE36E3
:1024A800DD36DD52DD52E82EF7D7120020EE06F0B9
:1024B8001850D9261950DA2212001BEC13F0000E1E
:1024C800F2BE010E176EF29E550E9B6FAA0E9B6F01
:1024D8009B91120EE26FE36FE46FE56FE66FE76FB3
:1024E800F46FF36FF26FE86FE96FF96FF86FF76FDA
:1024F800F66FF56F550E9B6FAA0E9B6F9B8117B0F9
:1025080002D0F29E01D0F28E120020EE06F01FD803
:10251800DECF17F0DECF18F0DECF19F0DECF1AF0DD
:10252800030E05D0D8901A32193218321732E82E15
:10253800F9D720EE04F00BD8DECF1BF0DDCF1CF06E
:1025480017501B5C156E18501C58166E120015504B
:10255800D9261650DA221200166E1650110D000EEA
:10256800F324176E030EF420186E20EE02F016D82E
:10257800DF6A20EE06F012D8DE6ADE6ADE6ADD6AFD
:1025880020EE0BF00BD80EEC10F008D8DE6ADD6AEE
:1025980020EE01F003D8DF50E5EF15F01750D926EB
:1025A8001850DA221200826A836A846A876AE00E07
:1025B800886E896A0F011C6BC00E146F0C6B286B38
:1025C800200E136F0B6B1B6B0A6B126B1A6B09696E
:1025D80011691969086910691869080E256F0D0EC7
:1025E8000E01B06F090EEE6F090C17C01EF018C06F
:1025F8001FF015C01CF016C01DF011D01EC0F6FF4C
:102608001FC0F7FF0800F5CF1BF01E4A1F2A1CC089
:10261800D9FF1DC0DAFF1BC0DFFF1C4A1D2A19069F
:10262800D8A01A061928EAE11A28E8E112001F0EB4
:102638000F01526F536B586B11D8410E546F8B0EAC
:10264800556F0F0E566FC40E5B6F0E01C693BE8397
:10265800A00E156E150E166E1DEF16F0656A666AE9
:10266800676A686A636A646A120020EE02F01550AD
:10267800D9261650DA22020EDE18D8A412000BD87A
:1026880031EC08F008D8DE50DE10D8A4120003D8C8
:10269800DE68DD68FF0C20EE0BF01550D9261650C9
:1026A800DA2212001CC0D9FF1DC0DAFFDF5053EC3C
:1026B8000AF015C01EF016C01FF0F2AE05D0F29E4B
:1026C80003D8F28E120000D020EE06F01C50D92656
:1026D8001D50DA221EC0DEFF1FC0DDFF120032ECE3
:1026E80013F0616A0F015A6B586B596B546B100EDB
:1026F800556F566B606A536B516B1F0E526F840E89
:102708005B6F576B0E01C693BE837C0E156E2C0E45
:10271800166E1DEF16F00001D95104E0ACEC15F06F
:102728000001D96B010EDA6F84EC15F0000901E1A4
:10273800000CD3EC15F063EC15F039EC16F0DA6FF9
:1027480009EC14F033EC16F0010C176E1750CEECB0
:1027580014F01750E5EC15F01750090D000EF3248E
:10276800156E020EF420166E01D8120020EE08F045
:102778001550D9261650DA22DF921200206A20500E
:10278800D6EC14F0DFA20DD02050090D000EF32472
:102798001C6E020EF4201D6E56EC13F020503BEC1C
:1027A80016F0202A0E0E2064EAD70E0C156E435040
:1027B800FEE00E01C0B903D015C099FF0DD0C09935
:1027C8004550B10FD96EDA6A15C0DFFF452A070EEA
:1027D800456401D0456A4306C08912001F6A1F502C
:1027E8008EEC15F000090CE11F50A2EC15F0000961
:1027F80007E02DEC16F00009D8B407EC07F0000C40
:102808001F2A0E0E1F64EBD7010C000E176E020E66
:10281800186E0CD001E2120017C015F018C016F09F
:10282800BAEC13F0090E1726000E182218500208E9
:10283800F1E117507E08EED7000E156E020E166EE7
:10284800780E176E3F0E186E1A6A870E196EF9EC1D
:1028580012F0206A2050A9EC13F0202A0E0E2064F2
:10286800F9D70E0C000E156E030E166E790E176E44
:102878003E0E186E1A6A1968F9EC12F0206A205098
:10288800B0EC12F0202A0E0E2064F9D70E0C176E49
:10289800020E17600DD01750110D840EF324D96E57
:1028A800010EF420DA6EDECF15F0DDCF16F012003F
:1028B800156A166A1200176E0F0E17600DD01750A2
:1028C800090D060EF324D96E020EF420DA6EDECF5F
:1028D80015F0DDCF16F01200156A166A120020EE08
:1028E80008F00CD8DF8820EE03F008D8040EDF6E5D
:1028F80020EE02F003D8C00EDF6EC00C0150D926BE
:102908000250DA221200080E43600DD04450B10F75
:10291800D96EDA6ADF50996E442A070E446401D0F2
:10292800446A432A12000E01C0991200156E020E65
:102938001560000C1550110D880EF324D96E010E88
:10294800F420DA6EDF50030B020AD8B4010C000C35
:1029580000000005800F500000000000000000008B
:102968000001000505800F50000000000000000075
:102978000000166E0F0E1660000C1650110D020E98
:10298800F324D96E030EF420DA6E020EDE18D8B4E2
:10299800010C000C156E0F0E15600F0C155002D8A7
:1029A800DF801200090D080EF324D96E020EF42000
:1029B800DA6E02011200196A1950110D000EF32483
:1029C800156E030EF420166E39EC13F0192A0E0E4C
:1029D8001964F2D70E0CF2AE06D0F29E07D857EC67
:1029E80011F0F28E120002D857EF11F01CC018F047
:1029F8001DC019F0120035EC16F0EEEC15F0D7EC0E
:102A080012F0F6EC15F073EC13F079EC15F001EC1C
:102A180012F0ACEF15F0C6930001E051E111D8B403
:102A280012000500FA6EE051FD6EE151FE6EF8509D
:102A3800FF6EFA501200156E0F0E1560000C15503F
:102A4800110D0A0EF324D96E030EF420DA6EDF504E
:102A5800120016BE05D015C015F016C016F01200EB
:102A6800151C156E161C166E154A162A12004250B1
:102A7800A90FD96EDA6A98CFDFFF422A070E42649F
:102A880001D0426A0001D72B120002BE05D001C056
:102A980001F002C002F01200011C016E021C026E5D
:102AA800014A022A120004D8DF8602D8DF981200F1
:102AB80020EE08F00150D9260250DA221200000157
:102AC800FB6BFB5170EC05F00001FB2B010EFB6565
:102AD800F8D7010C472A020E476401D0476AC1ECB7
:102AE80008F0DF500001DC6F1200010EBE6EBD6AF7
:102AF800BF6AF90EBB6EBA6AC993E90EBC6EE90CDF
:102B0800F2EC13F0000901E1000C22EC16F0C2EC23
:102B180013F0010C156E0F0E1560000C1550D6EC55
:102B280014F0DFB2010C000C156E0F0E1560000CCE
:102B38001550D6EC14F0DFB6010C000C156E0F0E14
:102B48001560000C1550D6EC14F0DFB0010C000C29
:102B580020EC14F036EC14F0DCEC15F009EC14F071
:102B680061EF12F0016E0F0E0160000C0150D6ECFF
:102B780014F0DFB2010C000C016E0F0E0160000CA6
:102B88000150D6EC14F0DFB0010C000CFFEC14F08F
:102B9800F28EF28C2AEC16F045EC00F0FDD7336A81
:102BA80033500EEC0EF0332A0E0E3364F9D70E0CA8
:102BB800186A1850CCEC11F0182A010E1864F9D7CD
:102BC800010C156E0F0E15600F0C1550D6EC14F095
:102BD800DF9612000E01DC6BDD6BDE6BDF6BE06BEA
:102BE800E16B1200600ED36FD56BD76B080ED96FEF
:0F2BF800D86B12005A1D640F9E1F001E3C343410
:102C080015C0EAF016C0EBF0120015C0E8F016C0C7
:102C1800E9F0120015C0E4F016C0E5F0120015C086
:102C2800E6F016C0E7F0120015C0E2F016C0E3F0B7
:102C3800120015C0E0F016C0E1F0120042EC08F0F6
:102C48006EEF15F04350D8A4010C000C396A6DEFF3
:102C580002F00001DF5112009C989C881200DFEFFF
:102C680014F0F29A12003BEF15F0000C120012005B
:072C7800120012001200011E
:103E78000000000001000000000000000000000039
:103E880046010101000100000000000000000000E0
:103E980000500102020001000000000000000000C4
:103EA80000005001030300010000000000000000B2
:103EB80000000050010404000100000000000000A0
:103EC800000000004B010505000200000000000092
:103ED80000000000004B0106060002000000000080
:103EE8000000000000005001070700020000000069
:103EF8000000000000000050010808000200000057
:103F08000000000000000000500109090002000044
:103F18000000000000000000004B010A0A00000039
:103F2800000000000000000000003C010B0B000036
:103F380000000000000000000000004B010C0C0015
:103F480000000000000000000000000050010D0DFE
:103F5800000000000000000000000000004B010EFF
:103F68000E000000000000000000000000005001EA
:103F78000001C04012000000000102C04010000013
:103F880000000203C04010000000000304C04010FD
:103F9800000000000405C04012000000000512C027
:103FA8004012000000000611C04010000000000789
:103FB80010C04010000000000806C04010000000BB
:103FC800000907C04012000000000A17C040100096
:103FD8000000000B16C04010000000000C15C04087
:103FE80010000000000D14C04010000000000E1367
:083FF800C040100000000000B1
:020000040030CA
:0C0000008CFFBEF79FFFFFDFFFFFFFFF3C
:00000001FF
